{
  "contractName": "LogsStorage",
  "abi": [
    {
      "constant": false,
      "inputs": [
        {
          "internalType": "uint256",
          "name": "documentID",
          "type": "uint256"
        },
        {
          "internalType": "string",
          "name": "logData",
          "type": "string"
        },
        {
          "internalType": "string",
          "name": "logTime",
          "type": "string"
        }
      ],
      "name": "writeLogsOnBlockchain",
      "outputs": [],
      "payable": false,
      "stateMutability": "nonpayable",
      "type": "function"
    },
    {
      "constant": true,
      "inputs": [
        {
          "internalType": "uint256",
          "name": "documentID",
          "type": "uint256"
        }
      ],
      "name": "getLogsFromBlockchain",
      "outputs": [
        {
          "components": [
            {
              "internalType": "string",
              "name": "logContent",
              "type": "string"
            },
            {
              "internalType": "string",
              "name": "logTime",
              "type": "string"
            }
          ],
          "internalType": "struct LogsStorage.log[]",
          "name": "",
          "type": "tuple[]"
        }
      ],
      "payable": false,
      "stateMutability": "view",
      "type": "function"
    },
    {
      "constant": true,
      "inputs": [
        {
          "internalType": "uint256",
          "name": "documentID",
          "type": "uint256"
        }
      ],
      "name": "getNumberOfLogs",
      "outputs": [
        {
          "internalType": "uint256",
          "name": "",
          "type": "uint256"
        }
      ],
      "payable": false,
      "stateMutability": "view",
      "type": "function"
    },
    {
      "constant": true,
      "inputs": [
        {
          "internalType": "string",
          "name": "a",
          "type": "string"
        },
        {
          "internalType": "string",
          "name": "b",
          "type": "string"
        }
      ],
      "name": "compareStrings",
      "outputs": [
        {
          "internalType": "bool",
          "name": "",
          "type": "bool"
        }
      ],
      "payable": false,
      "stateMutability": "view",
      "type": "function"
    },
    {
      "constant": true,
      "inputs": [
        {
          "internalType": "uint256",
          "name": "documentID",
          "type": "uint256"
        }
      ],
      "name": "getTypesOfLogsCount",
      "outputs": [
        {
          "internalType": "uint256",
          "name": "",
          "type": "uint256"
        },
        {
          "internalType": "uint256",
          "name": "",
          "type": "uint256"
        },
        {
          "internalType": "uint256",
          "name": "",
          "type": "uint256"
        }
      ],
      "payable": false,
      "stateMutability": "view",
      "type": "function"
    }
  ],
  "bytecode": "0x608060405234801561001057600080fd5b50610d6e806100206000396000f3fe608060405234801561001057600080fd5b50600436106100575760003560e01c8063736d113d1461005c5780638be313431461008c578063b5e511e3146100be578063bed34bba146100da578063f0dbfee11461010a575b600080fd5b61007660048036036100719190810190610944565b61013a565b6040516100839190610b95565b60405180910390f35b6100a660048036036100a19190810190610944565b610161565b6040516100b593929190610bb0565b60405180910390f35b6100d860048036036100d3919081019061096d565b61046f565b005b6100f460048036036100ef91908101906108d8565b61051f565b6040516101019190610b7a565b60405180910390f35b610124600480360361011f9190810190610944565b610578565b6040516101319190610b58565b60405180910390f35b60008060008084815260200190815260200160002060000180549050905080915050919050565b6000806000806000808681526020019081526020016000206000018054905090506000809050600080905060008090506060846040519080825280602002602001820160405280156101cd57816020015b6101ba610796565b8152602001906001900390816101b25790505b50905060008090505b858110156104595760008060008c8152602001908152602001600020600001828154811061020057fe5b9060005260206000209060020201905080604051806040016040529081600082018054600181600116156101000203166002900480601f0160208091040260200160405190810160405280929190818152602001828054600181600116156101000203166002900480156102b55780601f1061028a576101008083540402835291602001916102b5565b820191906000526020600020905b81548152906001019060200180831161029857829003601f168201915b50505050508152602001600182018054600181600116156101000203166002900480601f0160208091040260200160405190810160405280929190818152602001828054600181600116156101000203166002900480156103575780601f1061032c57610100808354040283529160200191610357565b820191906000526020600020905b81548152906001019060200180831161033a57829003601f168201915b50505050508152505083838151811061036c57fe5b60200260200101819052506103cd83838151811061038657fe5b6020026020010151600001516040518060400160405280600181526020017f720000000000000000000000000000000000000000000000000000000000000081525061051f565b156103dd5760018601955061044b565b6104338383815181106103ec57fe5b6020026020010151600001516040518060400160405280600181526020017f770000000000000000000000000000000000000000000000000000000000000081525061051f565b156104435760018501945061044a565b6001840193505b5b5080806001019150506101d6565b5083838397509750975050505050509193909250565b6104776107b0565b828160000181905250818160200181905250600080858152602001908152602001600020600001819080600181540180825580915050906001820390600052602060002090600202016000909192909190915060008201518160000190805190602001906104e69291906107ca565b5060208201518160010190805190602001906105039291906107ca565b5050505060016000815480929190600101919050555050505050565b6000816040516020016105329190610b41565b60405160208183030381529060405280519060200120836040516020016105599190610b41565b6040516020818303038152906040528051906020012014905092915050565b606060008060008481526020019081526020016000206000018054905090506060816040519080825280602002602001820160405280156105d357816020015b6105c0610796565b8152602001906001900390816105b85790505b50905060008090505b8281101561078b576000806000878152602001908152602001600020600001828154811061060657fe5b9060005260206000209060020201905080604051806040016040529081600082018054600181600116156101000203166002900480601f0160208091040260200160405190810160405280929190818152602001828054600181600116156101000203166002900480156106bb5780601f10610690576101008083540402835291602001916106bb565b820191906000526020600020905b81548152906001019060200180831161069e57829003601f168201915b50505050508152602001600182018054600181600116156101000203166002900480601f01602080910402602001604051908101604052809291908181526020018280546001816001161561010002031660029004801561075d5780601f106107325761010080835404028352916020019161075d565b820191906000526020600020905b81548152906001019060200180831161074057829003601f168201915b50505050508152505083838151811061077257fe5b60200260200101819052505080806001019150506105dc565b508092505050919050565b604051806040016040528060608152602001606081525090565b604051806040016040528060608152602001606081525090565b828054600181600116156101000203166002900490600052602060002090601f016020900481019282601f1061080b57805160ff1916838001178555610839565b82800160010185558215610839579182015b8281111561083857825182559160200191906001019061081d565b5b509050610846919061084a565b5090565b61086c91905b80821115610868576000816000905550600101610850565b5090565b90565b600082601f83011261088057600080fd5b813561089361088e82610c14565b610be7565b915080825260208301602083018583830111156108af57600080fd5b6108ba838284610cc1565b50505092915050565b6000813590506108d281610d14565b92915050565b600080604083850312156108eb57600080fd5b600083013567ffffffffffffffff81111561090557600080fd5b6109118582860161086f565b925050602083013567ffffffffffffffff81111561092e57600080fd5b61093a8582860161086f565b9150509250929050565b60006020828403121561095657600080fd5b6000610964848285016108c3565b91505092915050565b60008060006060848603121561098257600080fd5b6000610990868287016108c3565b935050602084013567ffffffffffffffff8111156109ad57600080fd5b6109b98682870161086f565b925050604084013567ffffffffffffffff8111156109d657600080fd5b6109e28682870161086f565b9150509250925092565b60006109f88383610aee565b905092915050565b6000610a0b82610c50565b610a158185610c7e565b935083602082028501610a2785610c40565b8060005b85811015610a635784840389528151610a4485826109ec565b9450610a4f83610c71565b925060208a01995050600181019050610a2b565b50829750879550505050505092915050565b610a7e81610cab565b82525050565b6000610a8f82610c66565b610a998185610ca0565b9350610aa9818560208601610cd0565b80840191505092915050565b6000610ac082610c5b565b610aca8185610c8f565b9350610ada818560208601610cd0565b610ae381610d03565b840191505092915050565b60006040830160008301518482036000860152610b0b8282610ab5565b91505060208301518482036020860152610b258282610ab5565b9150508091505092915050565b610b3b81610cb7565b82525050565b6000610b4d8284610a84565b915081905092915050565b60006020820190508181036000830152610b728184610a00565b905092915050565b6000602082019050610b8f6000830184610a75565b92915050565b6000602082019050610baa6000830184610b32565b92915050565b6000606082019050610bc56000830186610b32565b610bd26020830185610b32565b610bdf6040830184610b32565b949350505050565b6000604051905081810181811067ffffffffffffffff82111715610c0a57600080fd5b8060405250919050565b600067ffffffffffffffff821115610c2b57600080fd5b601f19601f8301169050602081019050919050565b6000819050602082019050919050565b600081519050919050565b600081519050919050565b600081519050919050565b6000602082019050919050565b600082825260208201905092915050565b600082825260208201905092915050565b600081905092915050565b60008115159050919050565b6000819050919050565b82818337600083830152505050565b60005b83811015610cee578082015181840152602081019050610cd3565b83811115610cfd576000848401525b50505050565b6000601f19601f8301169050919050565b610d1d81610cb7565b8114610d2857600080fd5b5056fea365627a7a723158202813d5991e1bf32b6b8261aeff5801bd4ea5adaebb1d541b33b5f4eab4f290466c6578706572696d656e74616cf564736f6c63430005100040",
  "source": "pragma solidity ^0.5.0;\r\npragma experimental ABIEncoderV2;\r\n\r\n\r\n\r\ncontract LogsStorage\r\n{\r\n    struct DocumentDetails\r\n    {\r\n        log[] logs;\r\n    }\r\n    \r\n    struct log\r\n    {\r\n        string logContent;\r\n        string logTime;\r\n    }\r\n    \r\n    mapping (uint=>DocumentDetails) Document;\r\n    uint count;\r\n    \r\n    function writeLogsOnBlockchain(uint256 documentID, string memory logData,string memory logTime) public\r\n    {\r\n        \r\n        log memory l;\r\n        l.logContent=logData;\r\n        l.logTime=logTime;\r\n    \r\n        Document[documentID].logs.push(l);\r\n        count++;\r\n    }\r\n    function getLogsFromBlockchain( uint256 documentID) public view returns(log[] memory)\r\n    {\r\n        uint numberOfLogs=Document[documentID].logs.length;\r\n        log[] memory actualLogs=new log[](numberOfLogs);\r\n        \r\n        for (uint i = 0; i < numberOfLogs; i++) {\r\n          log storage people = Document[documentID].logs[i];\r\n          actualLogs[i] = people;\r\n      }\r\n        return (actualLogs);\r\n    }\r\n    \r\n   function getNumberOfLogs( uint256 documentID) public view returns(uint)\r\n    {\r\n        uint numberOfLogs=Document[documentID].logs.length;\r\n        return (numberOfLogs);\r\n    }\r\n    \r\n    \r\n    function compareStrings(string memory a, string memory b) public view returns (bool) {\r\n        return (keccak256(abi.encodePacked((a))) == keccak256(abi.encodePacked((b))));\r\n    }\r\n    \r\n    function getTypesOfLogsCount( uint256 documentID) public view returns(uint,uint,uint)\r\n    {\r\n        uint numberOfLogs=Document[documentID].logs.length;\r\n        uint readLogCount=0;\r\n        uint writeLogCount=0;\r\n        uint deleteLogCount=0;\r\n        \r\n        \r\n        log[] memory actualLogs=new log[](numberOfLogs);\r\n        \r\n        for (uint i = 0; i < numberOfLogs; i++) \r\n        {\r\n          log storage people = Document[documentID].logs[i];\r\n          actualLogs[i] = people;\r\n          \r\n          if(compareStrings(actualLogs[i].logContent,\"r\"))\r\n          {\r\n              readLogCount+=1;\r\n          }\r\n          else if(compareStrings(actualLogs[i].logContent,\"w\"))\r\n          {\r\n              writeLogCount+=1;\r\n          }\r\n          else\r\n          {\r\n              deleteLogCount+=1;\r\n          }\r\n      }\r\n        return (readLogCount,writeLogCount,deleteLogCount);\r\n    }\r\n\r\n    \r\n}",
  "sourcePath": "C:/Users/swapy/Desktop/dapp/contracts/LogsStorage.sol",
  "compiler": {
    "name": "solc",
    "version": "0.5.16+commit.9c3226ce.Emscripten.clang"
  },
  "schemaVersion": "3.3.3",
  "updatedAt": "2021-01-16T11:28:26.640Z",
  "networkType": "ethereum",
  "devdoc": {
    "methods": {}
  },
  "userdoc": {
    "methods": {}
  }
}